:0C0902000A083F065B4F666D7D077F6FA3
:1008E200E4FDFCC3ED9FEC9E5015E4FBFA0BBB004C
:0F08F200010ABA04F8BBFBF50DBD00010C80E450
:0109010022D3
:1008C000A905C2A0D2A174082FF8E6F5B07F017E79
:1008D000001208E2D2A0C2A1740829F8E6F5B0021D
:0208E00008E22C
:10088C00C290E4F512E4F513E4F514E514C39401F5
:10089C00400330900BAD13AF121208C0051480EB5F
:1008AC000513E513C3940A40DF0512E512C3940A3D
:0408BC0040D380CED7
:03000000020800F3
:0C080000787FE4F6D8FD758114020847EB
:10080C0002088CE493A3F8E493A34003F68001F26E
:10081C0008DFF48029E493A3F85407240CC8C333ED
:10082C00C4540F4420C8834004F456800146F6DFBC
:10083C00E4800B0102040810204080900902E47E41
:10084C00019360BCA3FF543F30E509541FFEE493B1
:10085C00A360010ECF54C025E060A840B8E493A378
:10086C00FAE493A3F8E493A3C8C582C8CAC583CAA3
:10087C00F0A3C8C582C8CAC583CADFE9DEE780BE5B
:01090E0000E8
:00000001FF
