:1013AC002000566F6C746167653D2025302E3566C4
:0A13BC0000526177203D20256400F7
:10138C007F147E001213457F381213FD7F0C12134D
:10139C00FD7F011213FD7F061213FD7F800213FDEA
:0A13FD008FA0C28212133DC28022AD
:0A1407008FA0D28212133DC2802292
:061314007B007A0079283D
:10131A008B508A518952AB50AA51A952120CC8FF5C
:10132A00601012140774012552F552E43551F55133
:03133A0080E4222A
:0412AE008E088F090E
:1012B200750A27750B107B01D3E50B9400E50A94A0
:0312C200004046A3
:1012C500AC0AAD0BAE08AF09120D208F0CE50C7002
:1012D5000BEB6008E50B6401450A700AE50C243048
:1012E500FF121407E4FBAE08AF09AC0AAD0B120DF3
:1012F500208C088D09AE0AAF0B7C007D0A120D20EB
:041305008E0A8F0BB2
:0B13090080AF7BFF7A1379AC02131A4F
:1013C600EF7007ED2480F5508008BF0105ED24C0BD
:0713D600F550AF500213FDBA
:08133D00C281D2807F017E0015
:10134500E4FDFCC3ED9FEC9E5015E4FBFA0BBB00DE
:0F135500010ABA04F8BBFBF50DBD00010C80E4E2
:011364002266
:101228007590FFD285D284D28312138C1213DD8E6F
:10123800228F23AC22AD23EC1209ABE4FBFA79A090
:101248007840120800E4FBFA797F78431209098F85
:10125800278E268D258C247553FF7554137555AE2E
:101268008F598E588D578C567B007A007928120E2C
:1012780015E4FDFF1213C61213147F0A7E00121321
:1012880045E4FD7F011213C67553FF755413755558
:10129800BD8522568523577B007A007928120E15C2
:0612A800121314021234BF
:1013DD00C284121341D2842085FDC283121341AF02
:0313ED0090D28318
:0113F00022DA
:10080000EC4D6011E8497017ED33EC3304600DE4F2
:10081000FCFFFEFD22E933E8330470F8020A1912E6
:1008200009E458046009E4CC2481500628500902E8
:100830000A23284003020A20C0E0EB4A7044B98032
:1008400006D0E0FB020A0FEF4E701CBD8008EBFFE4
:10085000EAFEE9FD80EBE98DF0A4FEE5F00208E98F
:10086000E9CDF9EAFEEBFFEF89F0A4FCE5F0CE89D3
:10087000F0A42EFFE435F0CD89F0A42DFEE435F090
:100880008067EF4E7005BD80D780C3EF8BF0A4ACBE
:10089000F0EE8BF0A42CFCE435F0F8EF8AF0A42CF9
:1008A000E5F038FCE433CB8DF0A42CFCE5F03BF80C
:1008B000EE8AF0A42CFCE5F038F8E433CF89F0A4FC
:1008C0002CFCE5F038CF3400CE89F0A42FFFE5F002
:1008D0003EFEE433C98DF0A42EFEE5F039CD8AF05A
:1008E000A42FFFE5F03EFEE43DFD33D0E0FB5007D2
:1008F0000BBB000F020A23EC2CFCEF33FFEE33FEA0
:06090000ED33FD0209FBCE
:10090600020A23EC5D046005E859047003020A1923
:100916001209E4580460F6EC4860F2EC7004FDFE3F
:10092600FF22C860DB2481C85009C39860025006C4
:10093600020A209850CAF582E9294B4A7005AB8213
:10094600020A0F75F0007C1A7880C3EF9BEE9AEDD1
:1009560099400DC3EF9BFFEE9AFEED99FDE842F03C
:10096600DC23ACF0D0E0FFD0E0FED0E0FDAB82208F
:10097600E7101BEB60BAEC2CFCEF33FFEE33FEED19
:1009860033FD0209FBE803F830E705C0F075F00017
:10099600EF2FFFEE33FEED33FD40B830E7C280AAFD
:1009A60075F020800E75F010800575F0087D007ECC
:1009B600007F003392D530D503120D75EC3340100D
:1009C600EF33FFEE33FEED33FDEC33FCD5F0ED22D5
:0E09D600E5F0247EA2D513CC92E7CDCEFF2211
:100DB900E5672453F8E6056722785030070278532F
:100DC900E475F001120D83020CC82000EB7F2ED2CE
:100DD900008018EF540F2490D43440D4FF30040B12
:100DE900EF24BFB41A0050032461FFE568600215BF
:100DF90068056BE56B7002056A30070D7850E4757C
:100E0900F001120D83EF020D0E0213657403D20770
:100E19008003E4C207F5678B508A518952E4F5686B
:100E2900F56AF56BE56860077F20120DF480F575AA
:100E390069FFC201C200C202C203C205C206C208DA
:100E4900120DC2FF700D3007057F00120E05AF6B42
:100E5900AE6A22B4255FC2D5C204120DC2FF24D0E6
:100E6900B40A00501A75F00A786830D50508B6FF3B
:100E79000106C6A426F620D5047002D20380D9241F
:100E8900CFB41A00EF5004C2E5D2040210F2D20125
:100E990080C6D20080C0D20280BCD2D580BAD20529
:100EA90080B47F20120DF42002077401B568004058
:100EB900F1120DB9FF120DF4020E2DD208D20680DF
:100EC90095120DB9FB120DB9FA120DB9F94A4B7009
:100ED9000679E97A117BFF20022EE568602A7E00F7
:100EE9008E82758300120CE160060EEE656970F062
:100EF900C2D5EBC0E0EAC0E0E9C0E0EE121152D081
:100F0900E0F9D0E0FAD0E0FB120CC8FF60AAEBC010
:100F1900E0EAC0E0E9C0E0120DF4D0E02401F9D024
:100F2900E03400FAD0E0FBE5690460DCD569D980DA
:100F390087D20280A212113560F7E56970010412A7
:100F49000A2EA969600DE569600914F5691211DCB9
:100F5900EF60F3EA30E702F404C3995077EAF42525
:100F6900690430E701E404F569800D12113560C1A7
:100F7900EA05692569120A2EEA7866F630E701E47E
:100F8900256904D5690420050114121152E4C0E051
:100F99001211DC7866E6601320E70714F6120DDCFF
:100FA900802204F6D0E014C0E07F00120DDCE56970
:100FB9006007120DD31569800B300503120DD3D0CC
:100FC900E0020E2DD0E00480C512113560A0E5695C
:100FD90004120A2E7866EAF6E56920050260010422
:050FE900240412115266
:100FEE0074FF04C0E01211DC120DDCE5692005026D
:100FFE006003120DD3D0E0B569E87F45120DE67897
:10100E0066E67F2B30E7047F2DF404C0E0120DF46A
:10101E00D0E075F00A84C0F0120DDDD0E0120DDDC7
:10102E00020E2D791080027908C206C2088008D2FD
:10103E00D5790A8004790AC2D5E569047002F5698A
:10104E00E4FAFDFEFF120DB9FC7B08200113120D10
:10105E00B9FD7B1030000A120DB9FE120DB9FF7BDF
:10106E0020EC3382D592D55013C3E43000069FFF97
:10107E00E49EFEE42001039DFDE49CFCE4CBF8C25B
:10108E0001EC700CCFCECDCCE824F8F870F38017BD
:10109E00C3EF33FFEE33FEED33FDEC33FCEB33FBEE
:1010AE00994002FB0FD8E9EB300105F8D0E0C448B7
:1010BE00B201C0E00AEC4D4E4F78207B0070C2EAC0
:1010CE00B5690040BCC0E0121154D0F0D0E0200150
:1010DE0004C4C0E0C4B201C0F0120DDDD0F0D5F0F2
:1010EE00EB020E2D120D930ECA531031580E9B4C5F
:1010FE000E974210354F103D44103D490EB043102F
:10110E0043550F74460FD2450F3E471209500E9F9E
:10111E002D0EA32E0EC62B0EA7230EC42011F22ABF
:10112E000E5F4800000EBEE569B4FF037569061236
:10113E000DB9FC120DB9FD120DB9FE120DB9FF78E5
:10114E005F020A5D790AA2D5200314300509B91091
:10115E00020404B9080104A2D5200602500104209D
:10116E0002689202B568005034C0E07F2030031947
:10117E007F30A20272067205500F1211ABC202C26C
:10118E0006C205C2087F30800F300503E9C0E012A9
:10119E000DF4300503D0E0F9D0E0B568CC3005177A
:1011AE007F30B9100C120DF47F583004077F788011
:1011BE0003B90803120DF43002057F2D020DF47FE2
:1011CE00202008F87F2B2006F322920280CF7F008A
:1011DE00B407005005245FF8E6FF22286E756C6C8C
:1011EE002900D201120DB93001F8C201786830D54C
:1011FE000108F6020E5F2D50434958120DB9240313
:10120E00B405004001E490120493120DE5743A12F5
:0A121E000DE5D203756804021031DB
:1009E400E9D2E7C933E833F892D5EDD2E7CD33EC59
:0709F40033FC5002B2D522D2
:1009FB00EC30E7100FBF000C0EBE00080DBD00045D
:100A0B000BEB6014A2D5EB13FCED92E7FD2274FF08
:100A1B00FCFDFEFF22E480F8A2D574FF13FC7D8061
:030A2B00E480EF75
:100A2E00F920E72824F950037907E4F42402FB188F
:100A3E00DBFDE624FB5014E9600DE4F618E604F63F
:0F0A4E00B40A08E4F6D9F57401F60A22C2D522DB
:100A5D00ED33EC3392D5FA602AB4FF33EDC2E77B68
:100A6D00FF60067A0A7982E4227A0A798B20D5040E
:100A7D007A0A7986224E614E002B494E46002D4949
:100A8D004E4600E47A08F608DAFC7B00740722E88B
:100A9D00C0E0ECC0E0EDC0E0EEC0E0EFC0E0EA7514
:100AAD00F010A4CAABF075F04DA42BFBE435F0FCAF
:100ABD00EA2410FAEB34C5FBEC34D9FCEDC2E7FFA8
:100ACD0075F056A4F42411C5F0F434C58FF0A42AA2
:100ADD00E5F03BE43CF620E714120C88D0E0FFD0A3
:100AED00E0FED0E0FDD0E0FC1209098014F4041200
:100AFD000C88D0E0FFD0E0FED0E0FDD0E0FC120885
:100B0D0000D0E0F8E6FAEDD2E7CD33EC332482FBEA
:100B1D00E4C3CF33CFCE33CECD33CD33DBF37B0731
:100B2D0075F00A846004F6081B0AE5F0F6088FF0EC
:100B3D00740AA4FFACF08EF0740AA42CFEACF05035
:100B4D00010C8DF0740AA42CFDE435F0F608DBDE03
:030B5D00740722F8
:100B6000020A19E86480F8E933E83360110460F0A0
:100B7000ED33EC337009E8FCE9FDEAFEEBFF2204FB
:100B800060DED3EB9FEA9EE99DE8C2E78CF0C2F7F6
:100B900095F0400CE8CCF8E9CDF9EACEFAEBCFFBC2
:100BA0001209E485D0F05804700320D5B3E804702E
:100BB000075002B2D5020A2392D5EC0460F7E4CCC8
:100BC000C0E0C398F8603B94186008400DD0E0FB8B
:100BD0000209FBE4FBFAC9FC8028E830E406E4C91A
:100BE000FBE4CAFCE830E305E4C9CACBFCE85407DF
:100BF0006010F8C3E913F9EA13FAEB13FBEC13FCEA
:100C0000D8F130F52FC3E49CFCEF9BFFEE9AFEED8C
:100C100099FDD0E0FBEF4E4D4C701222DB03020A2F
:100C200020EC2CFCEF33FFEE33FEED33FDED30E72F
:100C3000EB0209FBEF2BFFEE3AFEED39FDD0E0FBB6
:100C400050130BBB0003020A23ED13FDEE13FEEF5E
:080C500013FFEC13FC0209FB89
:100C58003F8000004120000042C80000447A0000A4
:100C6800461C400047C35000497424004B18968026
:100C78004CBEBC205A0E1BCA6753C21C749DC5AE1D
:100C8800FB60065407601C2323120CB6EB54386033
:100C980009120CA2120CB1120800ECF8EDF9EEFAE8
:100CA800EFCB22EB120CB180F1543803241C900CCA
:100CB80058FE93FC0EEE93FD0EEE930ECE93FF229C
:030000000213F1F7
:0C13F100787FE4F6D8FD75816B021228AD
:100CC800BB010689828A83E0225002E722BBFE022A
:090CD800E32289828A83E493225D
:100CE100BB010CE58229F582E5833AF583E02250C8
:100CF10006E92582F8E622BBFE06E92582F8E22212
:0D0D0100E58229F582E5833AF583E493222B
:100D0E00BB010689828A83F0225002F722BBFE01C4
:020D1E00F322BE
:100D2000BC000BBE0029EF8DF084FFADF022E4CCB7
:100D3000F875F008EF2FFFEE33FEEC33FCEE9DEC80
:100D4000984005FCEE9DFE0FD5F0E9E4CEFD22EDC6
:100D5000F8F5F0EE8420D21CFEADF075F008EF2F10
:100D6000FFED33FD4007985006D5F0F222C398FD01
:050D70000FD5F0EA229E
:0E0D7500C3E49FFFE49EFEE49DFDE49CFC228F
:100D8300FAE6FB0808E6F925F0F618E6CA3AF62271
:100D9300D083D082F8E4937012740193700DA3A3EF
:100DA30093F8740193F5828883E473740293686003
:060DB300EFA3A3A380DF03
:10136500EFB40A07740D121370740A309811A89916
:10137500B8130CC2983098FDA899C298B811F630E8
:0713850099FDC299F59922C0
:00000001FF
